{
  "contractName": "Splitw",
  "abi": [
    {
      "inputs": [],
      "stateMutability": "nonpayable",
      "type": "constructor"
    },
    {
      "inputs": [
        {
          "internalType": "address payable[]",
          "name": "_to",
          "type": "address[]"
        },
        {
          "internalType": "uint256[]",
          "name": "_amount",
          "type": "uint256[]"
        }
      ],
      "name": "send",
      "outputs": [],
      "stateMutability": "payable",
      "type": "function"
    },
    {
      "inputs": [],
      "name": "balanceOfContract",
      "outputs": [
        {
          "internalType": "uint256",
          "name": "",
          "type": "uint256"
        }
      ],
      "stateMutability": "view",
      "type": "function"
    },
    {
      "inputs": [
        {
          "internalType": "address",
          "name": "_address",
          "type": "address"
        }
      ],
      "name": "balanceOfRecipient",
      "outputs": [
        {
          "internalType": "uint256",
          "name": "",
          "type": "uint256"
        }
      ],
      "stateMutability": "view",
      "type": "function"
    }
  ],
  "bytecode": "0x608060405234801561001057600080fd5b50336000806101000a81548173ffffffffffffffffffffffffffffffffffffffff021916908373ffffffffffffffffffffffffffffffffffffffff160217905550610839806100606000396000f3fe6080604052600436106100345760003560e01c806322377bcc14610039578063a645ff5f14610076578063e6c7c45614610092575b600080fd5b34801561004557600080fd5b50610060600480360381019061005b91906102c9565b6100bd565b60405161006d919061030f565b60405180910390f35b610090600480360381019061008b91906105b0565b6100de565b005b34801561009e57600080fd5b506100a761024f565b6040516100b4919061030f565b60405180910390f35b60008173ffffffffffffffffffffffffffffffffffffffff16319050919050565b3373ffffffffffffffffffffffffffffffffffffffff1660008054906101000a900473ffffffffffffffffffffffffffffffffffffffff1673ffffffffffffffffffffffffffffffffffffffff161461016c576040517f08c379a0000000000000000000000000000000000000000000000000000000008152600401610163906106ab565b60405180910390fd5b80518251146101b0576040517f08c379a00000000000000000000000000000000000000000000000000000000081526004016101a79061073d565b60405180910390fd5b60005b825181101561024a578281815181106101cf576101ce61075d565b5b602002602001015173ffffffffffffffffffffffffffffffffffffffff166108fc8383815181106102035761020261075d565b5b60200260200101519081150290604051600060405180830381858888f19350505050158015610236573d6000803e3d6000fd5b508080610242906107bb565b9150506101b3565b505050565b600047905090565b6000604051905090565b600080fd5b600080fd5b600073ffffffffffffffffffffffffffffffffffffffff82169050919050565b60006102968261026b565b9050919050565b6102a68161028b565b81146102b157600080fd5b50565b6000813590506102c38161029d565b92915050565b6000602082840312156102df576102de610261565b5b60006102ed848285016102b4565b91505092915050565b6000819050919050565b610309816102f6565b82525050565b60006020820190506103246000830184610300565b92915050565b600080fd5b6000601f19601f8301169050919050565b7f4e487b7100000000000000000000000000000000000000000000000000000000600052604160045260246000fd5b6103788261032f565b810181811067ffffffffffffffff8211171561039757610396610340565b5b80604052505050565b60006103aa610257565b90506103b6828261036f565b919050565b600067ffffffffffffffff8211156103d6576103d5610340565b5b602082029050602081019050919050565b600080fd5b60006103f78261026b565b9050919050565b610407816103ec565b811461041257600080fd5b50565b600081359050610424816103fe565b92915050565b600061043d610438846103bb565b6103a0565b905080838252602082019050602084028301858111156104605761045f6103e7565b5b835b8181101561048957806104758882610415565b845260208401935050602081019050610462565b5050509392505050565b600082601f8301126104a8576104a761032a565b5b81356104b884826020860161042a565b91505092915050565b600067ffffffffffffffff8211156104dc576104db610340565b5b602082029050602081019050919050565b6104f6816102f6565b811461050157600080fd5b50565b600081359050610513816104ed565b92915050565b600061052c610527846104c1565b6103a0565b9050808382526020820190506020840283018581111561054f5761054e6103e7565b5b835b8181101561057857806105648882610504565b845260208401935050602081019050610551565b5050509392505050565b600082601f8301126105975761059661032a565b5b81356105a7848260208601610519565b91505092915050565b600080604083850312156105c7576105c6610261565b5b600083013567ffffffffffffffff8111156105e5576105e4610266565b5b6105f185828601610493565b925050602083013567ffffffffffffffff81111561061257610611610266565b5b61061e85828601610582565b9150509250929050565b600082825260208201905092915050565b7f4f6e6c7920746865206f776e65722063616e206578656375746520746869732060008201527f666e282921000000000000000000000000000000000000000000000000000000602082015250565b6000610695602583610628565b91506106a082610639565b604082019050919050565b600060208201905081810360008301526106c481610688565b9050919050565b7f526563697069656e747320616e6420616d6f756e7473206172726179206d757360008201527f74206265206f66207468652073616d65206c656e677468000000000000000000602082015250565b6000610727603783610628565b9150610732826106cb565b604082019050919050565b600060208201905081810360008301526107568161071a565b9050919050565b7f4e487b7100000000000000000000000000000000000000000000000000000000600052603260045260246000fd5b7f4e487b7100000000000000000000000000000000000000000000000000000000600052601160045260246000fd5b60006107c6826102f6565b91507fffffffffffffffffffffffffffffffffffffffffffffffffffffffffffffffff82036107f8576107f761078c565b5b60018201905091905056fea264697066735822122016b6bb9062fa2deb599cd8bcf953655ca55a574858b1e12ef9a122243a70f2b564736f6c634300080f0033",
  "immutableReferences": {},
  "source": "pragma solidity 0.8.15;\n\ncontract Splitw {\n\n    address owner;\n    modifier onlyOwner {\n        require(owner ==msg.sender, \"Only the owner can execute this fn()!\");\n        _;\n    }\n\n    constructor (){\n        owner = msg.sender;\n    }\n\n    function send (address payable[] memory _to, uint[] memory _amount) external payable onlyOwner{         // I define this fn as payable in order to spare some time cerating a separate deposit() fn\n        require (_to.length == _amount.length, \"Recipients and amounts array must be of the same length\");\n        for (uint i=0;i<_to.length;i++) {\n            _to[i].transfer(_amount[i]);\n        }\n    }\n     \n     function balanceOfContract () external view returns (uint) {\n        return address(this).balance;\n     }\n\n          function balanceOfRecipient (address _address) external view returns (uint) {\n        return _address.balance;\n     }\n\n    }\n\n\n\n\n\n\n\n\n\n\n\n\n\n\n\n\n\n\n",
  "sourcePath": "/Users/petartodorov/Desktop/coding/solidity/Dapp30/splitpayment/contracts/Split.sol",
  "compiler": {
    "name": "solc",
    "version": "0.8.15+commit.e14f2714.Emscripten.clang"
  },
  "schemaVersion": "3.4.8",
  "updatedAt": "2022-08-16T17:08:36.688Z",
  "devdoc": {
    "kind": "dev",
    "methods": {},
    "version": 1
  },
  "userdoc": {
    "kind": "user",
    "methods": {},
    "version": 1
  }
}